:020000040000FA
:02000000C02A14
:08000800D7280B008034E2341C
:1000100023348034E334D1348034E534663480349E
:10002000E634E4348034E8344D348034E934A134A7
:100030008034EA34E3348034EC3412348034ED34E8
:1000400030348034EE343F348034EF343E34803406
:10005000F0342E348034F13412348034F134E83406
:100060008034F234B3348034F33472348034F43472
:1000700026348034F434D1348034F534713480340F
:10008000F63409348034F63498348034F7341F342D
:100090008034F7349F348034F83417348034F834A3
:1000A00089348034F834F4348034F9345934803469
:1000B000F934B9348034FA3413348034FA3468347F
:1000C0008034FA34B9348034FB3404348034FB3463
:1000D0004C348034FB3490348034FB34CF347E3461
:1000E000FB34FC347734FB34FC347034FB34F934A7
:1000F0006A34FB34FC346434FB34FB345E34FB344C
:10010000F7345934FB34FA345434FB34FA344F3472
:10011000FB34F7344B34FB34FD344734FC340034C7
:100120004334FB34FF343F34FB34FC343B34FB3486
:10013000F3343834FB34F9343534FB34FC343234A2
:10014000FB34FB342F34FB34F7342C34FB34EF34E2
:100150002A34FB34FA342734FB34E9342534FB34B5
:10016000EF342334FB34F1342134FB34F0341F34C6
:10017000FB34EB340B00F534E034CB34B534A0342D
:100180008B34753460344B34353420340B340034C4
:100190000B00003401340B004A2A502A562A5A2AEE
:1001A000D128D228D328D428D528D6280800200042
:1001B0002D0897002E089600050887000408860081
:1001C000120025009312131291002000A803031DB2
:1001D000EF2820308500133084002708A800A901EB
:1001E000AA010008AB01AC002C08AA072B08A93D06
:1001F000AC35AB0DAC35AB0D2C08AA072B08A93DCF
:10020000AC35AB0D2C08AA072B08A93DAC35AB0DBE
:100210002C08AA072B08A93DAC35AB0D2C08AA0762
:100220002B08A93DAC35AB0D2C08AA072B08A93D1E
:10023000AC35AB0D0108AB01AC002C08AA072B08AC
:10024000A93DAC35AB0DAC35AB0D2C08AA072B087E
:10025000A93DAC35AB0D2C08AA072B08A93DAC3540
:10026000AB0D2C08AA072B08A93DAC35AB0D2C080B
:10027000AA072B08A93DAC35AB0D2C08AA072B0803
:10028000A93DAC35AB0D701C043293210339031D1D
:100290004B29290881003F000508E9000408E8000F
:1002A0002000111009000301F4001F30F500911027
:1002B0006400911CFD33F50BFA33F40BF6330800A0
:1002C00003010C1E01388C1D02380800FA30F400BE
:1002D00022000C152000FA30F50064000000000038
:1002E0000000000000000000F50BF73322000C11A5
:1002F0002000FA30F500640000000000000000005B
:1003000000000000F50BF733F40BE2330800230084
:100310009100843092001513951715140000000009
:1003200013082000080031083204031D9B2915081A
:10033000B100FF3AB200310D3106F300320E311A2E
:10034000803AF306F30DB20DB10D3208080021001A
:1003500064009D18FD331C08F4009D142000F50175
:100360007508BA2074020318B729F50AF933F50A9B
:100370000D3075020319F50175080800203085005D
:10038000133084002708A80093211A00A80BFC331F
:100390000800FE2122008C1220002507F400F4073B
:1003A000F40774080520A700F40A74080520AD00BE
:1003B000740A0520AE002408C82000387010031D00
:1003C0007014BE2122008C162000203085001330CE
:1003D00084002708A8002D0897002E089600250005
:1003E000910195010C30930020001110210011148F
:1003F00020000B178B179A01181408008B13250087
:1004000093012000181008000C30A5000030A20055
:10041000A3016021701D0332031970110301031D34
:100420004E2A22088721A100A20A0F390319442A63
:10043000A601210E0339A607A60A2108F039303A91
:10044000031D2D2A22088721F40021060F39031DE0
:100450002D2A7408A100A20AEC3321030F39C92107
:1004600096305421A60BFC33FE2122008C12200072
:10047000A10EA10CA10C0330A105A1080319092AA2
:1004800096305421A103F933A10E2108A10CA10C2F
:100490000339CB2823080038031D072A70154D2B7C
:1004A000220AA30022088721A200B3330330A1054A
:1004B000A10AE333250821180C3E211CF43EA500B7
:1004C000A8332000803122008C0121001B308C00D9
:1004D00020002100083095002000240018308C00F6
:1004E0002000210070309900980120008B0121002C
:1004F0009101920120009101920121001430970096
:10050000200022009A019B0120002200910120007E
:100510002200970120002500930191019501200000
:1005200027009101183092009301200023009E01C2
:100530009D0120002400940195019601970120005F
:10054000210005309D0070309E009D142000230086
:1005500002308C00200022009801200027009A0120
:1005600020009E019F0127009C0120004030980040
:10057000990100309C00FF309B009A011C15080077
:100580000308183964000319E12A6122F001B1015E
:10059000B20122008C162000662122008C1220005D
:1005A000532122008C162000662122008C1220008C
:1005B0005321A4011830A500A001F0147015F0110A
:1005C0004D2B6021031D4D2BA721031D4D2B220018
:1005D0008C0120002700930120008B130B108B153A
:1005E000640063000000210064001A085939593A78
:1005F000031DF42A2000C02A6021031D022B2200C3
:100600008C122000701D27320319122B22008C1629
:100610002000033A031D4C2B7D302F02031C4C2B72
:10062000F011042A7011F01D3732240A023A031D1A
:10063000023AA400F0114B30542122008C12200009
:100640006430542122008C16200064305421220092
:100650008C122000213203194C2B283054216021A8
:1006600003194C2B22008C162000033A0319F015B5
:100670000319492B01390319442B25080C3E3C3A38
:100680000319492B3C3A04322508F43E031C492B3C
:10069000A500AF01B001701508006400AF01B00102
:1006A0000A305421AF0A031D582BB00A0319E72A58
:1006B000FC22A721A00E20060F39A00620080F3922
:1006C000F01C07320319F010200E2006031DF01055
:1006D000E7330319502B200E2006031D502B200357
:0806E0000F39C921F0144D2B64
:100800000800060015001800180018001A0038002B
:100810001600150018002D000F007000B50015001F
:10082000300070001500300018001800700015002E
:1008300030007000150030003F001D000C002D003E
:100840002F00700005003000BF00180015001800D0
:10085000180018001A0038001600250008001D00B6
:100860001F007000B50030001800180016001600B8
:100870001600700006000500350030001F002D0036
:1008800008007000150030001F00BD0008000600C1
:10089000150018001D0015000500A8001600150021
:1008A00018002D000F007000B5003000180018006F
:1008B00070001500150015003000700015003000A4
:1008C0003F001D001C001D002F00700005003000BF
:1008D000BF000800060015001800180018001A00D4
:1008E000180028000800150018002D000F007000E7
:1008F000B50030000800080018007000160016004F
:100900001600300070001600150030002F000D009A
:100910002D0008007000150030001F003D003D0054
:040920006001000072
:020000040001F9
:080000000E000E0002000000DA
:02000E001C2EA6
:02001000FC1FD3
:00000001FF
